:020000040000FA
:020000000B28CB
:0800080006100B10061A1A2065
:10001000861A23200900831600308500F030860000
:100020000430810083128B158B175C2060200E102A
:10003000630018285A203920061E2C283920061A59
:100040001E285C2008005E203920861E2C283920BE
:10005000861A2728602008001E308D000E1C4520BF
:100060008D0B2E2854200800061A0E14861A0E1422
:100070000800063081007D308C000108031D3D28FA
:10008000063081008C0B3D280800063081007D3051
:100090008C0034200E1808000108031D4928063082
:1000A00081008C0B49280800061086100E1039209C
:1000B0000900182806140800061008008614080015
:0400C000861008009E
:02400E00F13F80
:00000001FF
